{
  "_format": "hh-sol-artifact-1",
  "contractName": "Diamond",
  "sourceName": "contracts/Diamond.sol",
  "abi": [
    {
      "inputs": [
        {
          "internalType": "address",
          "name": "_contractOwner",
          "type": "address"
        }
      ],
      "stateMutability": "payable",
      "type": "constructor"
    },
    {
      "anonymous": false,
      "inputs": [
        {
          "components": [
            {
              "internalType": "address",
              "name": "facetAddress",
              "type": "address"
            },
            {
              "internalType": "bytes4[]",
              "name": "functionSelectors",
              "type": "bytes4[]"
            }
          ],
          "indexed": false,
          "internalType": "struct LibDiamond.FacetCut",
          "name": "_diamondCut",
          "type": "tuple"
        }
      ],
      "name": "DiamondCut",
      "type": "event"
    },
    {
      "anonymous": false,
      "inputs": [
        {
          "indexed": true,
          "internalType": "address",
          "name": "previousOwner",
          "type": "address"
        },
        {
          "indexed": true,
          "internalType": "address",
          "name": "newOwner",
          "type": "address"
        }
      ],
      "name": "OwnershipTransferred",
      "type": "event"
    },
    {
      "stateMutability": "payable",
      "type": "fallback"
    },
    {
      "inputs": [
        {
          "components": [
            {
              "internalType": "address",
              "name": "facetAddress",
              "type": "address"
            },
            {
              "internalType": "bytes4[]",
              "name": "functionSelectors",
              "type": "bytes4[]"
            }
          ],
          "internalType": "struct LibDiamond.FacetCut",
          "name": "_diamondCut",
          "type": "tuple"
        }
      ],
      "name": "diamondCut",
      "outputs": [],
      "stateMutability": "nonpayable",
      "type": "function"
    },
    {
      "stateMutability": "payable",
      "type": "receive"
    }
  ],
  "bytecode": "0x6080604052604051620012ac380380620012ac8339818101604052810190620000299190620001b7565b6200003a816200004160201b60201c565b50620001e9565b6000620000536200012060201b60201c565b905060008160030160009054906101000a900473ffffffffffffffffffffffffffffffffffffffff169050828260030160006101000a81548173ffffffffffffffffffffffffffffffffffffffff021916908373ffffffffffffffffffffffffffffffffffffffff1602179055508273ffffffffffffffffffffffffffffffffffffffff168173ffffffffffffffffffffffffffffffffffffffff167f8be0079c531659141344cd1fd0a4f28419497f9722a3daafe3b4186f6b6457e060405160405180910390a3505050565b6000807fc8fcad8db84d3cc18b4c41d551ea0ee66dd599cde068d998e57d5e09332c131c90508091505090565b600080fd5b600073ffffffffffffffffffffffffffffffffffffffff82169050919050565b60006200017f8262000152565b9050919050565b620001918162000172565b81146200019d57600080fd5b50565b600081519050620001b18162000186565b92915050565b600060208284031215620001d057620001cf6200014d565b5b6000620001e084828501620001a0565b91505092915050565b6110b380620001f96000396000f3fe6080604052600436106100225760003560e01c8063659078311461016857610029565b3661002957005b6000610033610191565b9050600081600001600080357fffffffff00000000000000000000000000000000000000000000000000000000167bffffffffffffffffffffffffffffffffffffffffffffffffffffffff19167bffffffffffffffffffffffffffffffffffffffffffffffffffffffff1916815260200190815260200160002060000160009054906101000a900473ffffffffffffffffffffffffffffffffffffffff169050600073ffffffffffffffffffffffffffffffffffffffff168173ffffffffffffffffffffffffffffffffffffffff1603610142576040517f08c379a0000000000000000000000000000000000000000000000000000000008152600401610139906108bc565b60405180910390fd5b3660008037600080366000845af43d6000803e8060008114610163573d6000f35b3d6000fd5b34801561017457600080fd5b5061018f600480360381019061018a919061090a565b6101be565b005b6000807fc8fcad8db84d3cc18b4c41d551ea0ee66dd599cde068d998e57d5e09332c131c90508091505090565b6101c66101d2565b6101cf81610250565b50565b6101da6107d2565b73ffffffffffffffffffffffffffffffffffffffff166101f8610805565b73ffffffffffffffffffffffffffffffffffffffff161461024e576040517f08c379a0000000000000000000000000000000000000000000000000000000008152600401610245906109c5565b60405180910390fd5b565b60008160000160208101906102659190610a43565b905060008280602001906102799190610a7f565b80806020026020016040519081016040528093929190818152602001838360200280828437600081840152601f19601f82011690508083019250505050505050905060008151116102ff576040517f08c379a00000000000000000000000000000000000000000000000000000000081526004016102f690610b54565b60405180910390fd5b600073ffffffffffffffffffffffffffffffffffffffff168273ffffffffffffffffffffffffffffffffffffffff160361036e576040517f08c379a000000000000000000000000000000000000000000000000000000000815260040161036590610be6565b60405180910390fd5b6000610378610191565b905060008160010160008573ffffffffffffffffffffffffffffffffffffffff1673ffffffffffffffffffffffffffffffffffffffff1681526020019081526020016000206000018054905090506000816bffffffffffffffffffffffff16036104b4576103fe8460405180606001604052806024815260200161105a6024913961080d565b81600201805490508260010160008673ffffffffffffffffffffffffffffffffffffffff1673ffffffffffffffffffffffffffffffffffffffff1681526020019081526020016000206001018190555081600201849080600181540180825580915050600190039060005260206000200160009091909190916101000a81548173ffffffffffffffffffffffffffffffffffffffff021916908373ffffffffffffffffffffffffffffffffffffffff1602179055505b60005b83518110156107935760008482815181106104d5576104d4610c06565b5b602002602001015190506000846000016000837bffffffffffffffffffffffffffffffffffffffffffffffffffffffff19167bffffffffffffffffffffffffffffffffffffffffffffffffffffffff1916815260200190815260200160002060000160009054906101000a900473ffffffffffffffffffffffffffffffffffffffff169050600073ffffffffffffffffffffffffffffffffffffffff168173ffffffffffffffffffffffffffffffffffffffff16146105c9576040517f08c379a00000000000000000000000000000000000000000000000000000000081526004016105c090610ca7565b60405180910390fd5b83856000016000847bffffffffffffffffffffffffffffffffffffffffffffffffffffffff19167bffffffffffffffffffffffffffffffffffffffffffffffffffffffff1916815260200190815260200160002060000160146101000a8154816bffffffffffffffffffffffff02191690836bffffffffffffffffffffffff16021790555086856000016000847bffffffffffffffffffffffffffffffffffffffffffffffffffffffff19167bffffffffffffffffffffffffffffffffffffffffffffffffffffffff1916815260200190815260200160002060000160006101000a81548173ffffffffffffffffffffffffffffffffffffffff021916908373ffffffffffffffffffffffffffffffffffffffff1602179055508460010160008873ffffffffffffffffffffffffffffffffffffffff1673ffffffffffffffffffffffffffffffffffffffff1681526020019081526020016000206000018290806001815401808255809150506001900390600052602060002090600891828204019190066004029091909190916101000a81548163ffffffff021916908360e01c0217905550838061077b90610d0e565b9450505050808061078b90610d4c565b9150506104b7565b507f870a27c741d6bfa35424e9edf793d7d7b000dc66c0dae57ddac33cdde585b5bb856040516107c39190610f96565b60405180910390a15050505050565b60006107dc610191565b60030160009054906101000a900473ffffffffffffffffffffffffffffffffffffffff16905090565b600033905090565b6000823b9050600081118290610859576040517f08c379a00000000000000000000000000000000000000000000000000000000081526004016108509190611037565b60405180910390fd5b50505050565b600082825260208201905092915050565b7f4469616d6f6e643a2046756e6374696f6e20646f6573206e6f74206578697374600082015250565b60006108a660208361085f565b91506108b182610870565b602082019050919050565b600060208201905081810360008301526108d581610899565b9050919050565b600080fd5b600080fd5b600080fd5b600060408284031215610901576109006108e6565b5b81905092915050565b6000602082840312156109205761091f6108dc565b5b600082013567ffffffffffffffff81111561093e5761093d6108e1565b5b61094a848285016108eb565b91505092915050565b7f4c69624469616d6f6e643a204d75737420626520636f6e7472616374206f776e60008201527f6572000000000000000000000000000000000000000000000000000000000000602082015250565b60006109af60228361085f565b91506109ba82610953565b604082019050919050565b600060208201905081810360008301526109de816109a2565b9050919050565b600073ffffffffffffffffffffffffffffffffffffffff82169050919050565b6000610a10826109e5565b9050919050565b610a2081610a05565b8114610a2b57600080fd5b50565b600081359050610a3d81610a17565b92915050565b600060208284031215610a5957610a586108dc565b5b6000610a6784828501610a2e565b91505092915050565b600080fd5b600080fd5b600080fd5b60008083356001602003843603038112610a9c57610a9b610a70565b5b80840192508235915067ffffffffffffffff821115610abe57610abd610a75565b5b602083019250602082023603831315610ada57610ad9610a7a565b5b509250929050565b7f4c69624469616d6f6e644375743a204e6f2073656c6563746f727320696e206660008201527f6163657420746f20637574000000000000000000000000000000000000000000602082015250565b6000610b3e602b8361085f565b9150610b4982610ae2565b604082019050919050565b60006020820190508181036000830152610b6d81610b31565b9050919050565b7f4c69624469616d6f6e644375743a204164642066616365742063616e2774206260008201527f6520616464726573732830290000000000000000000000000000000000000000602082015250565b6000610bd0602c8361085f565b9150610bdb82610b74565b604082019050919050565b60006020820190508181036000830152610bff81610bc3565b9050919050565b7f4e487b7100000000000000000000000000000000000000000000000000000000600052603260045260246000fd5b7f4c69624469616d6f6e644375743a2043616e2774206164642066756e6374696f60008201527f6e207468617420616c7265616479206578697374730000000000000000000000602082015250565b6000610c9160358361085f565b9150610c9c82610c35565b604082019050919050565b60006020820190508181036000830152610cc081610c84565b9050919050565b7f4e487b7100000000000000000000000000000000000000000000000000000000600052601160045260246000fd5b60006bffffffffffffffffffffffff82169050919050565b6000610d1982610cf6565b91506bffffffffffffffffffffffff8203610d3757610d36610cc7565b5b600182019050919050565b6000819050919050565b6000610d5782610d42565b91507fffffffffffffffffffffffffffffffffffffffffffffffffffffffffffffffff8203610d8957610d88610cc7565b5b600182019050919050565b6000610da36020840184610a2e565b905092915050565b610db481610a05565b82525050565b600080fd5b600080fd5b600080fd5b60008083356001602003843603038112610de657610de5610dc4565b5b83810192508235915060208301925067ffffffffffffffff821115610e0e57610e0d610dba565b5b602082023603831315610e2457610e23610dbf565b5b509250929050565b600082825260208201905092915050565b6000819050919050565b60007fffffffff0000000000000000000000000000000000000000000000000000000082169050919050565b610e7c81610e47565b82525050565b6000610e8e8383610e73565b60208301905092915050565b610ea381610e47565b8114610eae57600080fd5b50565b600081359050610ec081610e9a565b92915050565b6000610ed56020840184610eb1565b905092915050565b6000602082019050919050565b6000610ef68385610e2c565b9350610f0182610e3d565b8060005b85811015610f3a57610f178284610ec6565b610f218882610e82565b9750610f2c83610edd565b925050600181019050610f05565b5085925050509392505050565b600060408301610f5a6000840184610d94565b610f676000860182610dab565b50610f756020840184610dc9565b8583036020870152610f88838284610eea565b925050508091505092915050565b60006020820190508181036000830152610fb08184610f47565b905092915050565b600081519050919050565b60005b83811015610fe1578082015181840152602081019050610fc6565b60008484015250505050565b6000601f19601f8301169050919050565b600061100982610fb8565b611013818561085f565b9350611023818560208601610fc3565b61102c81610fed565b840191505092915050565b600060208201905081810360008301526110518184610ffe565b90509291505056fe4c69624469616d6f6e644375743a204e657720666163657420686173206e6f20636f6465a2646970667358221220fe6c3e50965b9fb3d4de10ccd71c9d670a7c67e6ff131c52efd95e4f5a03778064736f6c63430008140033",
  "linkReferences": {},
  "deployedLinkReferences": {}
}